{
  "contractName": "Test",
  "abi": [
    {
      "inputs": [
        {
          "internalType": "uint256",
          "name": "testNum",
          "type": "uint256"
        }
      ],
      "name": "test",
      "outputs": [
        {
          "internalType": "uint256",
          "name": "data",
          "type": "uint256"
        }
      ],
      "stateMutability": "pure",
      "type": "function"
    },
    {
      "inputs": [],
      "name": "test2",
      "outputs": [
        {
          "internalType": "bytes32",
          "name": "data",
          "type": "bytes32"
        }
      ],
      "stateMutability": "pure",
      "type": "function"
    }
  ],
  "bytecode": "0x608060405234801561001057600080fd5b506101d7806100206000396000f3fe608060405234801561001057600080fd5b50600436106100365760003560e01c806329e99f071461003b57806366e41cb71461006b575b600080fd5b610055600480360381019061005091906100f9565b610089565b604051610062919061015b565b60405180910390f35b6100736100c9565b6040516100809190610140565b60405180910390f35b6000609060405260006040518060600160405280600160ff168152602001600260ff168152602001600360ff168152509050602060900151915050919050565b60006040516468656c6c6f6000820152600081015191505090565b6000813590506100f38161018a565b92915050565b60006020828403121561010b57600080fd5b6000610119848285016100e4565b91505092915050565b61012b81610176565b82525050565b61013a81610180565b82525050565b60006020820190506101556000830184610122565b92915050565b60006020820190506101706000830184610131565b92915050565b6000819050919050565b6000819050919050565b61019381610180565b811461019e57600080fd5b5056fea26469706673582212209fcd03cd5683360b35078e44ff48d8b2dbdc4494c5e1a2221a064333a352a58a64736f6c63430008040033",
  "immutableReferences": {},
  "source": "// SPDX-License-Identifier: MIT\npragma solidity >=0.4.22 <0.9.0;\n\ncontract Test {\n    function test(uint testNum) external pure returns (uint data) {\n        assembly {\n            // you can write lower level code\n\n            // let _num := 4\n            // let _fmp := mload(0x40)\n\t\t\tmstore(0x40, 0x90)\n        }\n\n        uint8[3] memory items = [1, 2, 3];\n\n        // return testNum;\n\t\tassembly {\n\t\t\tdata := mload(add(0x90, 0x20)) // points to number 2 in array, as 1 starts at 0x90 and we add 2 bytes\n\t\t}\n    }\n\n    function test2() external pure returns (bytes32 data) {\n        assembly {\n            let fmp := mload(0x40)\n            // hello\n            mstore(add(fmp, 0x00), 0x68656C6C6F)\n            data := mload(add(fmp, 0x00))\n        }\n    }\n}\n",
  "sourcePath": "/Users/admin/Desktop/self-development/udemy/web3-solidity-dapps/blockchain/faucet/contracts/Test.sol",
  "compiler": {
    "name": "solc",
    "version": "0.8.4+commit.c7e474f2.Emscripten.clang"
  },
  "schemaVersion": "3.4.16",
  "updatedAt": "2024-11-25T19:45:15.910Z",
  "devdoc": {
    "kind": "dev",
    "methods": {},
    "version": 1
  },
  "userdoc": {
    "kind": "user",
    "methods": {},
    "version": 1
  }
}